:100000000C942A000C9434000C9434000C943400AA
:100010000C9434000C9434000C9434000C94340090
:100020000C9434000C9434000C9434000C94340080
:100030000C9434000C9434000C9434000C94340070
:100040000C9434000C9434000C9434000C94340060
:100050000C94340011241FBECFE5D8E0DEBFCDBF25
:100060000E9436000C9471000C94000084B78068E4
:1000700084BF84B7806884BF17BA80EF88BB8FEFD6
:100080008ABB84BB90E040E020E030E061E070E0BB
:100090005FEF86B325BB80FD0AC09130A9F42150E3
:1000A000310912F420E030E0972F472F0DC081FF77
:1000B00009C082FD09C0442339F02F5F3F4F972FBD
:1000C000472F02C0962F462F2115310511F05BBB3B
:1000D00001C01BBAE7EAF1E63197F1F700C0000072
:0600E000D8CFF894FFCF19
:00000001FF
