S01B0000426C7565746F6F74685F496E746572666163652E7372656363
S11300000C942A000C9434000C9434000C943400A6
S11300100C9434000C9434000C9434000C9434008C
S11300200C9434000C9434000C9434000C9434007C
S11300300C9434000C9434000C9434000C9434006C
S11300400C9434000C9434000C9434000C9434005C
S11300500C94340011241FBECFE5D4E0DEBFCDBF25
S11300600E9436000C94E7000C9400008FEF87BBCD
S113007084BB1BBA81E08ABB60E875E280E090E053
S11300800E94930018BA15BA87E487B981E886B943
S1130090C12CD12CE12C00E0F12CC0E010E0D1E027
S11300A00E94C100813341F4C11103C0C09ACD2F15
S11300B034C0C098C12F31C0823341F4011103C050
S11300C0C19A0D2F2AC0C198012F27C0833341F450
S11300D0F11003C0C29AFD2E20C0C298F12E1DC09B
S11300E0843341F4E11003C0A89AED2E16C0A898F9
S11300F0E12E13C0853341F4D11003C0A99ADD2E3B
S11301000CC0A998D12E09C0863339F4C11003C09C
S1130110AE9ACD2E02C0AE98C12EC99B02C0D89A09
S1130120BFCFD898BDCF2AB128692AB920B526688F
S113013020BDDC01CB01880F991FAA1FBB1F880FAC
S1130140991FAA1FBB1F9C01AD01220F331F441F1F
S1130150551F220F331F441F551F60E072E18AE7C9
S113016090E00E94C5008FEF820F89B9DA01C901BE
S11301700197A109B109892F9A2FAB2FBB2780BD05
S113018008955F9BFECF8CB10895A1E21A2EAA1B9D
S1130190BB1BFD010DC0AA1FBB1FEE1FFF1FA21733
S11301A0B307E407F50720F0A21BB30BE40BF50B30
S11301B0661F771F881F991F1A9469F760957095B9
S11301C0809590959B01AC01BD01CF010895F894F1
S10501D0FFCF5B
S9030000FC
